:020000040800F2
:1000000000500020310600081506000817060008F9
:10001000190600081B0600081D0600080000000065
:100020000000000000000000000000001F060008A3
:10003000210600080000000023060008250600082D
:100040007906000879060008790600087906000894
:100050007906000879060008790600087906000884
:100060007906000879060008790600087906000874
:100070007906000879060008790600087906000864
:100080007906000879060008790600087906000854
:100090007906000879060008790600087906000844
:1000A0007906000879060008790600087906000834
:1000B0007906000879060008790600087906000824
:1000C0007906000879060008790600087906000814
:1000D0007906000879060008790600087906000804
:1000E000790600087906000879060008000000007B
:1000F0000000000000000000000000000000000000
:0C01000000000000000000005FF808F1A3
:10010C000348044B834202D0034B03B1184770479A
:10011C001400002014000020000000000548064BCD
:10012C001B1AD90F01EBA301491002D0034B03B1E9
:10013C001847704714000020140000200000000035
:10014C0010B5064C237843B9FFF7DAFF044B13B113
:10015C000448AFF300800123237010BD140000206D
:10016C0000000000801A000808B5054B1BB10549BA
:10017C000548AFF30080BDE80840FFF7CFBF00BFD4
:10018C000000000018000020801A000800B585B09F
:10019C0000238DF80C308DF80D004FF4FA7300939A
:1001AC00022303AA7821034800F002FF05B05DF892
:1001BC0004FB00BF30000020022800D9704710B5A6
:1001CC0004462020FFF7E2FF2046FFF7DFFF014B3C
:1001DC001C7010BD00000020A0F10F03DBB2302B0F
:1001EC0000D9704710B50446A820FFF7CFFF204672
:1001FC00FFF7CCFF10BD3F2800D9704710B504465F
:10020C00D320FFF7C3FF2046FFF7C0FF10BD3F28E8
:10021C0000D9704708B54030C0B2FFF7B7FF08BD32
:10022C0010B504468120FFF7B1FF2046FFF7AEFF63
:10023C0010BD0F280FD838B505460C460F2900D92C
:10024C0038BDD520FFF7A2FF2101C9B24819C0B2B1
:10025C00FFF79CFFF4E77047012800D9704710B5F1
:10026C0004468D20FFF792FFA000C0B2103000F0C2
:10027C00FC00FFF78BFF10BD012814D838B50446DD
:10028C000D46012900D938BDDA20FFF77FFF200188
:10029C00C0B26901C9B20844C0B2023000F0FE001D
:1002AC00FFF774FFEFE7704708B5064B1B78022B7E
:1002BC0001D1072800D908BD5038C0B2FFF766FF3E
:1002CC00F9E700BF00000020094B1B78022B0DD171
:1002DC0010B5044610F0800F07D100F00F00FFF7A7
:1002EC0055FF20091030FFF751FF10BD704700BFBC
:1002FC000000002000B585B04FF4FA730293019111
:10030C000090012340227821024800F00DFF05B037
:10031C005DF804FB3000002008B50220FFF74CFF0D
:10032C003F20FFF759FF0020FFF765FF0020FFF784
:10033C006EFFA120FFF72AFFC820FFF727FF00213F
:10034C000846FFF799FF7F20FFF76AFFA420FFF70D
:10035C001DFFA620FFF71AFF08210020FFF769FFF9
:10036C000120FFF779FF00210120FFF785FFAF2067
:10037C00FFF70CFF08BD10B50C46FFF795FF2046A4
:10038C00FFF7A2FF10BD10B5A0B080220021684677
:10039C0001F090FA002409E000212046FFF7EBFF62
:1003AC0080216846FFF7A6FF0134E4B2072CF3D98D
:1003BC0020B010BD2DE9F0410C46072904D8164693
:1003CC00C100CDB20F2801D9BDE8F08129462046E5
:1003DC00FFF7D1FF3701DFF82480082108EB061066
:1003EC00FFF788FF601C2946C0B2FFF7C4FF07F176
:1003FC00080008214044FFF77DFFE5E7A81A000834
:10040C00F8B504460E461746002500E001357A5D26
:10041C005AB131462046FFF7CDFF0134E4B20F2C20
:10042C00F4D90236F6B20024F0E72846F8BD0000F5
:10043C0008B5FFF771FFFFF7A6FF41220021084620
:10044C00FFF7B8FF592200210120FFF7B3FF034A41
:10045C0002210020FFF7D4FFEFE700BF981A000835
:10046C0084B00F4B9A6942F020029A619A6902F0AB
:10047C0020020192019A9A6942F004029A619A69E7
:10048C0002F004020292029A9A6942F008029A61FE
:10049C009B6903F008030393039B04B0704700BFF0
:1004AC000010024008B50B480B4B03600B4B43602C
:1004BC0000238360C3604FF4804202614361836117
:1004CC00C361036200F096FC00B908BD00F03AF875
:1004DC00FBE700BF3000002000540040A086010064
:1004EC0010B586B00023029303930493059302681E
:1004FC00114B9A4201D006B010BD104CA36943F0C9
:10050C000803A361A36903F008030093009BC023B5
:10051C000293122303930323059302A9084800F0C6
:10052C005BF9E36943F40013E361E36903F400133B
:10053C000193019BDFE700BF005400400010024014
:10054C00000C014072B6FEE700B591B028220021E4
:10055C0006A801F0AFF900230193029303930493CF
:10056C000593012206924FF4803307930A920222DC
:10057C000D920E934FF4E0130F9306A800F09CFE1F
:10058C0080B90F23019302210291002303934FF4AE
:10059C0080620492059301A801F0C0F820B911B053
:1005AC005DF804FBFFF7CEFFFFF7CCFF08B500F0BA
:1005BC0085F8FFF7C9FFFFF753FFFFF773FFFFF74E
:1005CC0037FFFEE782B00E4B9A6942F001029A6146
:1005DC009A6902F001020092009ADA6942F08052A4
:1005EC00DA61DB6903F080530193019B054A536880
:1005FC0023F0E06343F00073536002B0704700BF18
:10060C000010024000000140FEE7FEE7FEE7FEE7B7
:10061C00FEE770477047704708B500F061F808BDF9
:10062C0070470000FFF7FCFF0B480C490C4A0023F5
:10063C0002E0D458C4500433C4188C42F9D3094A8C
:10064C00094C002301E013600432A242FBD301F0F9
:10065C0081F9FFF7ABFF7047000000201400002069
:10066C00E02200081400002020020020FEE7000019
:10067C0010B504460E4B1A784FF47A73B3FBF2F3B1
:10068C000C4A1068B0FBF3F000F092F868B90F2C2C
:10069C0001D901200AE0002221464FF0FF3000F082
:1006AC0077F8054B1C60002000E0012010BD00BF56
:1006BC0008000020040000200C00002008B5074AA8
:1006CC00136843F010031360032000F04FF80F2061
:1006DC00FFF7CEFFFFF776FF002008BD0020024099
:1006EC00034A1168034B1B780B441360704700BF1F
:1006FC008400002008000020014B1868704700BFE0
:10070C0084000020002808DB0901C9B200F1604018
:10071C0000F5614080F80013704700F00F000901EC
:10072C00C9B2014B1954704714ED00E000B500F04C
:10073C000700C0F1070CBCF1040F28BF4FF0040CEC
:10074C00031D062B0FD9C31E4FF0FF3E0EFA0CF003
:10075C0021EA000199400EFA03FE22EA0E0241EA58
:10076C0002005DF804FB0023EEE70000074AD368A3
:10077C0023F4E0631B041B0C000200F4E060034351
:10078C0043F0BF6343F40033D360704700ED00E0E7
:10079C0010B50446054BD868C0F30220FFF7C6FF1E
:1007AC0001462046FFF7AEFF10BD00BF00ED00E094
:1007BC000138B0F1807F0BD24FF0E0235861054A2D
:1007CC00F02182F823100020986107221A617047EB
:1007DC000120704700ED00E070B582B00024A44603
:1007EC00A1E07E4DAB4214D00CD8A5F58015AB42E0
:1007FC000FD005F57025AB420BD0A5F58015AB429B
:10080C0010D106E0764DAB4203D005F58035AB42F6
:10081C0008D18B68002B50D0012B49D042610824A1
:10082C0000E0CC68BEF1FF0F49D806464FEA8C02B7
:10083C0033680F25954023EA050304FA02F21343AB
:10084C0033604B6813F0805F6BD0664B9A6942F053
:10085C0001029A619B6903F001030193019B4FEA2A
:10086C009C02951C604B53F825600CF00305AD0001
:10087C000F23AB4026EA03065C4B984226D003F5C7
:10088C008063984200F08C8003F58063984200F0FE
:10089C00898003F58063984216D0042317E0CC6856
:1008AC000434BFE7CC680834BCE7CC680C34B9E737
:1008BC0002610824B6E70024B4E70424B2E7061D5D
:1008CC00ACF108029200B3E7032300E00023AB4035
:1008DC0033430232444D45F822304B6813F4801FE9
:1008EC0062D0434A936843EA0E0393604B6813F457
:1008FC00001F5FD03E4AD36843EA0E03D3604B68B7
:10090C0013F4003F5CD03A4A536843EA0E03536039
:10091C004B6813F4803F59D0354A136843EA0E03F1
:10092C0013600CF1010C0B6833FA0CF254D0012259
:10093C0002FA0CF203EA020E32EA0303F1D14B681D
:10094C00122B3FF64EAF122B3FF66CAF01A555F8AC
:10095C0023F000BF1F0800082F080008B10800088A
:10096C00C3080008310800083108000831080008E5
:10097C003108000831080008310800083108000867
:10098C003108000831080008310800083108000857
:10099C003108000831080008AB080008B708000847
:1009AC00012394E7022392E7114A936823EA0E038A
:1009BC0093609BE70E4AD36823EA0E03D3609EE74D
:1009CC000B4A536823EA0E035360A1E7084A1368E5
:1009DC0023EA0E031360A4E702B070BD00002210DE
:1009EC0000003110001002400000014000080140DE
:1009FC000004014003685A6912F4806F01D1002091
:100A0C0070476FF480625A6100230363202280F8E0
:100A1C003D2080F83E30026C42F00402026480F803
:100A2C003C30012070472DE9F04106460C46174634
:100A3C0098463BE0FFF760FE069BC01A404502D883
:100A4C00B8F1000F32D1012D18D033689B6924EA1C
:100A5C0003039BB2B3FA83F35B099F4226D10023B5
:100A6C003363202286F83D2086F83E30326C42F00B
:100A7C002002326486F83C30012027E033685B6941
:100A8C0024EA03039BB2B3FA83F35B09E5E733680B
:100A9C005B6924EA030C1FFA8CFCBCFA8CFC4FEA51
:100AAC005C1C674511D1B8F1FF3FC3D1C4F30745B6
:100ABC00012DECD033689B6924EA030C1FFA8CFCE3
:100ACC00BCFA8CFC4FEA5C1CEBE70020BDE8F08123
:100ADC002DE9F84305460E469046994653E01A68B0
:100AEC0042F400721A602B686FF480625A61002322
:100AFC002B63202285F83D2085F83E302A6C42F08D
:100B0C0004022A6485F83C3001204AE0FFF7F4FD2A
:100B1C00A0EB0900404502D8B8F1000F33D1012FEA
:100B2C0017D02B689B6926EA03039BB2003B18BFC6
:100B3C00012343B300232B63202285F83D2085F845
:100B4C003E302A6C42F020022A6485F83C300120A9
:100B5C0027E02B685B6926EA03039BB2003B18BFB6
:100B6C000123E6E72B689C6926EA0404A4B2003C46
:100B7C0018BF0124A4B12B685A6912F4806FAED14E
:100B8C00B8F1FF3FC2D1C6F30747012FEAD12B685A
:100B9C005C6926EA0404A4B2003C18BF0124E9E70E
:100BAC000020BDE8F8830000F0B583B004460D4684
:100BBC0016461F46C36A082B0DD0012B0BD013F51C
:100BCC00803F08D0036B122B0AD10268136843F4E0
:100BDC008073136004E02268136843F4807313601D
:100BEC000097334600224FF001112046FFF71BFF00
:100BFC0080B92369B3F5804F16D1236805F0FE0543
:100C0C001D613B46324613492046FFF761FFF8B998
:100C1C0003B0F0BD23681B6813F4807F02D04FF43F
:100C2C00007323640320F3E7EB11226803F006033F
:100C3C0043F0F00313613B46324607492046FFF769
:100C4C0047FF18B92368EDB21D61DAE70120DFE731
:100C5C000120DDE7020001000800010070B5044628
:100C6C000D46164623685B6913F0800F21D1204690
:100C7C00FFF7C0FEF8B9B5F1FF3FF3D0FFF73CFD2D
:100C8C00801BA84201D8002DECD123685B6913F0BE
:100C9C00800FE7D100232363202284F83D2084F8C1
:100CAC003E30226C42F02002226484F83C30012059
:100CBC0000E0002070BD0120FCE700002DE9F043AE
:100CCC0085B004460D4691461F46DDF830800D9EDA
:100CDC000368196841F4807119600096434600223C
:100CEC004FF00111FFF79FFE60B9236805F0FE0578
:100CFC001D613346424626492046FFF7E9FE68B19E
:100D0C00012008E023681B6813F4807F02D04FF4A5
:100D1C0000732364032005B0BDE8F0830023039324
:100D2C0023685A6903929B690393039B324641469D
:100D3C002046FFF793FF30B9012F0FD123685FFADC
:100D4C0089F61E61E7E7236C042B01D00120E2E752
:100D5C002268136843F400731360F7E723684FEAC3
:100D6C0019221A61324641462046FFF777FF20B917
:100D7C0023685FFA89F61E61CDE7236C042B01D042
:100D8C000120C8E72268136843F400731360F7E787
:100D9C000200010070B504460D46164623685B69D7
:100DAC0013F0040F21D12046FFF724FEF8B9B5F15A
:100DBC00FF3FF3D0FFF7A0FC801BA84201D8002D09
:100DCC00ECD123685B6913F0040FE7D10023236394
:100DDC00202284F83D2084F83E30226C42F0200220
:100DEC00226484F83C30012000E0002070BD01201A
:100DFC00FCE70000002800F0CC8070B5044690F8A9
:100E0C003D30002B77D0242384F83D3022681368C2
:100E1C0023F0010313602268136843F4004313604A
:100E2C002268136823F40043136000F033FD6268FA
:100E3C005A4B9A4264D85A4B98428CBF00230123D8
:100E4C00002B40F0A8805749A1FB00318B0C256882
:100E5C006A6822F03F0242EA91426A6021680A6A9B
:100E6C0022F03F0266684D4DAE424FD8013313431A
:100E7C000B622168CA6922F44F4222F0FF026568B6
:100E8C00464B9D424CD8431E6D00B3FBF5F301332A
:100E9C0040F6FC70034278D0C3F30B031A43CA61CB
:100EAC0021680B6823F0C003E269206A02431343F4
:100EBC000B6021688B6823F4034323F0FF03226942
:100ECC00E068024313438B602168CB6823F0FF0377
:100EDC006269A06902431343CB602268136843F034
:100EEC000103136000202064202384F83D3020632C
:100EFC0084F83E0070BD80F83C30FFF7F1FA82E7D1
:100F0C00294B98428CBF0023012399E74FF4967527
:100F1C0005FB03F3254DA5FB03539B090133A6E702
:100F2C00A668BEB9431E05EB450CB3FBFCF30133BD
:100F3C00C3F30B03B3FA83F35B0943BBC6B9431E7C
:100F4C0005EB4505B3FBF5F30133C3F30B0343F496
:100F5C000043A3E7431E05EB850C0CEB8C0CB3FB99
:100F6C00FCF30133C3F30B03B3FA83F35B09E4E73C
:100F7C00431E05EB850505EB8505B3FBF5F3013346
:100F8C00C3F30B0343F4404388E7042386E70123B0
:100F9C0084E7012070470120ACE700BFA086010068
:100FAC007F841E0083DE1B43FF083D00D34D62107F
:100FBC002DE9F04385B004460F46914698460C9EA9
:100FCC00FFF79AFB054694F83D00C0B2202804D0E8
:100FDC000227384605B0BDE8F0830095192301229D
:100FEC004F492046FFF71FFD002840F0928094F8EF
:100FFC003C30012B00F08F80012384F83C302368B7
:10100C001A6812F0010F03D11A6842F001021A603B
:10101C002268136823F400631360212384F83D30A5
:10102C00102384F83E3000232364C4F82490A4F8E1
:10103C002A80638D23853B4BE3622B46324639462F
:10104C002046FFF7B1FD0746002866D10023039325
:10105C0023685A6903929B690393039B11E0236CE9
:10106C00042B01D00127B4E72268136843F4007302
:10107C001360F7E72A4631462046FFF78BFE00281F
:10108C002ED1238D002B36D02A4631462046FFF731
:10109C00E5FD0028E3D1626A236812781A61606A60
:1010AC00431C6362618D89B2013989B26185238DDC
:1010BC00013B9BB223852268516911F0040FD9D0F2
:1010CC00002BD7D043781361636A01336362638D5D
:1010DC009BB2013B9BB26385238D013B2385C9E702
:1010EC00236C042B01D0012773E72268136843F4A7
:1010FC0000731360F7E72268136843F400731360FE
:10110C00202384F83D30002384F83E3084F83C30B2
:10111C005FE702275DE702275BE7012759E700BF7E
:10112C00020010000000FFFF2DE9F04383B00446DD
:10113C000F46904699460C9EFFF7DEFA054694F84A
:10114C003D00C0B2202803D0022003B0BDE8F083DC
:10115C000095192301224B492046FFF764FC002817
:10116C0040F0898094F83C30012B00F086800123FC
:10117C0084F83C3023681A6812F0010F03D11A6806
:10118C0042F001021A602268136823F400631360B2
:10119C00212384F83D30402384F83E30002323641F
:1011AC000A9B6362BDF82C306385638D2385364BB7
:1011BC00E362019500964B46424639462046FFF7BE
:1011CC007DFD00285BD1238D002B35D02A4631467E
:1011DC002046FFF743FD20BB626A236812781A6130
:1011EC00626A531C6362218D013989B22185638D3A
:1011FC009BB2013B9BB263852368586910F0040FC6
:10120C00E1D00029DFD052781A61636A013363623E
:10121C00238D013B2385638D9BB2013B9BB2638580
:10122C00D1E7236C042B01D001208EE722681368D0
:10123C0043F400731360F7E72A4631462046FFF764
:10124C00A9FD50B1236C042B01D001207DE722684D
:10125C00136843F400731360F7E72268136843F4D0
:10126C0000731360202384F83D30002384F83E3053
:10127C0084F83C3069E7022067E7022065E701202B
:10128C0063E700BF020010000000FFFF82B0084BB4
:10129C001B68084AA2FB03235B0A00FB03F30193C0
:1012AC0000BF019B5A1E0192002BF9D102B070476E
:1012BC0004000020D34D6210002800F0F18170B5BD
:1012CC0082B00446036813F0010F2CD0994B5B6875
:1012DC0003F00C03042B1DD0964B5B6803F00C033E
:1012EC00082B12D06368B3F5803F41D0002B55D149
:1012FC0003F1804303F504331A6822F480321A6038
:10130C001A6822F480221A6037E08A4B5B6813F467
:10131C00803FE7D0874B1B6813F4003F03D0636812
:10132C00002B00F0BF81236813F0020F75D0814BA6
:10133C005B6813F00C0F5FD07E4B5B6803F00C0303
:10134C00082B54D02369002B00F08A807A4B0122A1
:10135C001A60FFF7D1F90546764B1B6813F0020FA4
:10136C0075D1FFF7C9F9401B0228F5D903209EE17E
:10137C00704A136843F480331360636843B3FFF718
:10138C00BBF905466B4B1B6813F4003FCBD1FFF741
:10139C00B3F9401B6428F5D9032088E1B3F5A02FDD
:1013AC0009D0644B1A6822F480321A601A6822F44D
:1013BC0080221A60E1E703F18043A3F53C331A68FD
:1013CC0042F480221A601A6842F480321A60D4E720
:1013DC00FFF792F90546574B1B6813F4003FA2D058
:1013EC00FFF78AF9401B6428F5D903205FE1514BC4
:1013FC005B6813F4803FA5D14E4B1B6813F0020FB2
:10140C0003D02369012B40F04F814A4A136823F023
:10141C00F803616943EAC1031360236813F0080FF2
:10142C0033D0A369002B5CD0434B0122C3F880243A
:10143C00FFF762F905463F4B5B6A13F0020F21D1AF
:10144C00FFF75AF9401B0228F5D903202FE1394A3E
:10145C00136823F0F803616943EAC1031360DCE706
:10146C00354B00221A60FFF747F90546314B1B68D4
:10147C0013F0020FD1D0FFF73FF9401B0228F5D92A
:10148C00032014E10120FFF701FF236813F0040F80
:10149C0000F09680274BDB6913F0805F34D1254B2D
:1014AC00DA6942F08052DA61DB6903F08053019310
:1014BC00019B0125214B1B6813F4807F26D0E36828
:1014CC00012B3DD0002B53D103F1804303F50433A2
:1014DC001A6A22F001021A621A6A22F004021A62D3
:1014EC0033E0154B0022C3F88024FFF705F90546BD
:1014FC00104B5B6A13F0020FC7D0FFF7FDF8401BCF
:10150C000228F5D90320D2E00025D3E70B4A136853
:10151C0043F480731360FFF7EFF80646074B1B6824
:10152C0013F4807FCBD1FFF7E7F8801B6428F5D943
:10153C000320BCE00010024000004242007000405A
:10154C005F4A136A43F001031362E36833B3FFF796
:10155C00D3F806465A4B1B6A13F0020F2FD1FFF734
:10156C00CBF8801B41F288339842F3D903209EE0DC
:10157C00052B09D0524B1A6A22F001021A621A6A20
:10158C0022F004021A62E0E74D4B1A6A42F00402A0
:10159C001A621A6A42F001021A62D6E7FFF7ACF837
:1015AC000646474B1B6A13F0020F08D0FFF7A4F84E
:1015BC00801B41F288339842F3D9032077E0E5B9D8
:1015CC00E369002B72D03E4A526802F00C02082AE2
:1015DC0056D0022B17D03B4B00221A66FFF78CF823
:1015EC000446374B1B6813F0007F47D0FFF784F895
:1015FC00001B0228F5D9032059E0314AD36923F0A6
:10160C008053D361DCE72F4B00221A66FFF774F886
:10161C0005462B4B1B6813F0007F06D0FFF76CF8C8
:10162C00401B0228F5D9032041E0236AB3F5803F23
:10163C001AD023494B6823F47413226A606A02435C
:10164C0013434B601F4B01221A66FFF755F80446F3
:10165C001B4B1B6813F0007F0ED1FFF74DF8001BDE
:10166C000228F5D9032022E0154A536823F40033ED
:10167C00A1680B435360DCE7002018E0002016E063
:10168C00012B16D00E4B5B6803F48031226A914219
:10169C0011D103F47013626A93420ED1002006E05C
:1016AC0001207047012002E0012000E0002002B080
:1016BC0070BD0120FBE70120F9E70120F7E700BF2F
:1016CC0000100240000042420F4B5B6803F00C021A
:1016DC00082A01D00D487047C3F383420C49885C3B
:1016EC0013F4803F0BD0084B5B68C3F34043094AAB
:1016FC00D35C064A02FB00F0B0FBF3F07047064BDC
:10170C0003FB00F0704700BF0010024000127A008B
:10171C00C4220008C022000800093D00002800F087
:10172C00A08070B50D460446524B1B6803F00703AE
:10173C008B420BD24F4A136823F007030B43136001
:10174C00136803F007038B4240F08D80236813F07D
:10175C00020F17D013F0040F04D0474A536843F418
:10176C00E0635360236813F0080F04D0424A5368B7
:10177C0043F460535360404A536823F0F003A1686C
:10178C000B435360236813F0010F31D06368012BB6
:10179C0020D0022B25D0384A126812F0020F64D0E8
:1017AC0035494A6822F0030213434B60FEF7A4FF4D
:1017BC000646314B5B6803F00C036268B3EB820F97
:1017CC0016D0FEF799FF801B41F288339842F0D96E
:1017DC00032045E0284A126812F4003FE0D10120B2
:1017EC003EE0254A126812F0007FD9D1012037E083
:1017FC00204B1B6803F00703AB420AD91D4A136840
:10180C0023F007032B431360136803F00703AB4269
:10181C002DD1236813F0040F06D0174A536823F414
:10182C00E063E1680B435360236813F0080F07D0A3
:10183C00114A536823F46053216943EAC10353608E
:10184C00FFF742FF0C4B5B68C3F303130B4AD35CEB
:10185C00D8400B4B18600B4B1868FEF709FF0020A3
:10186C0070BD012070470120FAE70120F8E7012044
:10187C00F6E700BF0020024000100240B022000832
:10188C00040000200C000020014B1868704700BFBA
:10189C000400002008B5FFF7F7FF044B5B68C3F3A7
:1018AC000223034AD35CD84008BD00BF001002409D
:1018BC00A822000870B5860747D0541E002A3ED0D7
:1018CC000346CAB201E0013C39D303F8012B9D0752
:1018DC00F9D1032C2CD9CDB205EB05250F2C1A46CA
:1018EC0005EB054534D9A4F1100C2CF00F0603F1CF
:1018FC00100EB6444FEA1C1CC2E90055C2E9025551
:10190C0010327245F8D10CF1010214F00C0F03EBFC
:10191C00021204F00F0C13D0ACF1040323F00303F8
:10192C000433134442F8045B9342FBD10CF00304E0
:10193C002CB1C9B21C4403F8011BA342FBD170BDEE
:10194C0064461346002CF4D1F9E703461446C0E76D
:10195C00A446E1E770B50F4B0F4DAB42A3EB050668
:10196C0007D00024B61055F8043B01349847A64222
:10197C00F9D800F07FF8094D094B5E1BAB424FEADA
:10198C00A60606D0002455F8043B01349847A6421D
:10199C00F9D870BDD4220008D4220008D422000843
:1019AC00DC220008704700BF704700BF024B13B128
:1019BC00024800F005B8704700000000D919000873
:1019CC00002301461A46184600F014B838B5074DE6
:1019DC00074C2C1BA41005D0013C55F8043D98472E
:1019EC00002CF9D1BDE8384000F04AB8E0220008DC
:1019FC00DC2200082DE9F8431B4D06462868984662
:101A0C000F469146FFF7CEFF184B1C681CB3286895
:101A1C0065681F2D22DC4EB96B1C0235636044F8DF
:101A2C002570FFF7C1FF0020BDE8F883012304EB0C
:101A3C008501C1F88890D4F88821AB401A43022E56
:101A4C00C4F88821C1F80881E6D1D4F88C211A4356
:101A5C00C4F88C21E0E7064C1C60D8E7FFF7A4FF24
:101A6C004FF0FF30E0E700BF100000208C0000209A
:101A7C0090000020F8B500BFF8BC08BC9E4670472B
:0C1A8C00F8B500BFF8BC08BC9E467047CF
:101A980048656C6C6F20576F726C64210000000001
:101AA800000000000000000000000000000000002E
:101AB80000FE020202020202003F20202020202015
:101AC800000000000000000000000000000000000E
:101AD80000FE020202020202003F202020202020F5
:101AE80000FE020202020202003F202020202020E5
:101AF80000FE020202020202003F202020202020D5
:101B080000FE020202020202003F202020202020C4
:101B180000FE020202020202003F202020202020B4
:101B280000FE020202020202003F202020202020A4
:101B3800000000000000000000000000000000009D
:101B4800000000000000000000000000000000008D
:101B5800000000000000000000000000000000007D
:101B680000FE020202020202003F20202020202064
:101B780000FE020202020202003F20202020202054
:101B880000FE020202020202003F20202020202044
:101B980000FE020202020202003F20202020202034
:101BA80000FE020202020202003F20202020202024
:101BB80000FE020202020202003F20202020202014
:101BC80000FE020202020202003F20202020202004
:101BD80000FE020202020202003F202020202020F4
:101BE80000FE020202020202003F202020202020E4
:101BF80000FE020202020202003F202020202020D4
:101C080000FE020202020202003F202020202020C3
:101C180000FE020202020202003F202020202020B3
:101C280000FE020202020202003F202020202020A3
:101C380000FE020202020202003F20202020202093
:101C480000FE020202020202003F20202020202083
:101C580000FE020202020202003F20202020202073
:101C6800000000000000000000000000000000006C
:101C7800000000000000000000000000000000005C
:101C8800000000000000000000000000000000004C
:101C9800000000000000000000000000000000003C
:101CA800000000000000000000000000000000002C
:101CB800000000F8000000000000003300000000F1
:101CC80000100C02100C02000000000000000000D0
:101CD8000040C07840C0780000043F04043F04007E
:101CE80000708888FC08300000182020FF211E00A2
:101CF800F008F0806018000000310C031E211E005F
:101D080000F00888700000001E21232C19272110DC
:101D180000120E000000000000000000000000009B
:101D2800000000E01804020000000007182040002E
:101D380000020418E000000000402018070000001E
:101D4800404080F0804040000202010F0102020082
:101D580000000000E0000000000101010F01010186
:101D6800000000000000000000907000000000006B
:101D78000000000000000000000101010101010055
:101D880000000000000000000030300000000000EB
:101D980000000000C03804000060180700000000C0
:101DA80000E010080810E000000F102020100F00BD
:101DB80000001010F8000000000020203F20200044
:101DC800007008080808F00000302824222130009C
:101DD80000300808088870000018202121221C0003
:101DE8000000804030F8000000060524243F242429
:101DF80000F88888880808000019202020110E00A3
:101E080000E0108888900000000F112020201F009B
:101E180000180808886818000000003E010000004B
:101E28000070880808887000001C222121221C00EC
:101E380000F008080810E0000001122222110F002B
:101E4800000000C0C00000000000003030000000AA
:101E58000000008000000000000000E0000000001A
:101E68000000804020100800000102040810200033
:101E780000404040404040000002020202020200CE
:101E88000008102040800000002010080402010013
:101E98000070480808887000000000303700000013
:101EA800C030C828E810E000071827282F28170096
:101EB8000000C038E0000000203C23020227382040
:101EC80008F8888888700000203F202020110E0024
:101ED800C03008080808380007182020201008001B
:101EE80008F808080810E000203F202020100F0004
:101EF80008F88888E8081000203F202023201800D0
:101F080008F88888E8081000203F20000300000037
:101F1800C03008080838000007182020221E0200D8
:101F280008F808000008F808203F210101213F2097
:101F3800000808F8080800000020203F20200000C2
:101F480000000808F8080800C08080807F000000B2
:101F580008F888C028180800203F200126382000EB
:101F680008F8080000000000203F20202020300052
:101F780008F8F800F8F80800203F013E013F20006B
:101F880008F830C00008F808203F200007183F0074
:101F9800E01008080810E0000F10202020100F00A3
:101FA80008F808080808F000203F21010101000096
:101FB800E01008080810E0000F10282830504F00E3
:101FC80008F8888888887000203F2000030C30209B
:101FD80000708808080838000038202121221C00D9
:101FE800180808F8080818000000203F2000000022
:101FF80008F808000008F808001F202020201F000B
:102008000878880000C83808000007380E0100006A
:1020180008F800F800F8080000033E013E0300003D
:10202800081868808068180820302C03032C30209A
:102038000838C800C83808000000203F2000000009
:1020480010080808C8380800203826212020180061
:10205800000000FE020202000000007F4040400035
:10206800000438C000000000000000010638C0006D
:1020780000020202FE000000004040407F00000015
:10208800000004020204000000000000000000003C
:102098000000000000000000808080808080808038
:1020A8000002020400000000000000000000000020
:1020B800000080808000000000192424123F2000C6
:1020C80010F0008080000000003F112020110E0059
:1020D8000000008080800000000E112020201100E8
:1020E800000080808090F000001F202020103F20FA
:1020F8000000808080800000001F24242424170012
:10210800008080E0909020000020203F20200000E8
:102118000000808080808000006B9494949360001D
:1021280010F0008080800000203F210000203F2028
:1021380000809898000000000020203F2020000028
:10214800000000809898000000C08080807F000018
:1021580010F0000080808000203F240629302000F5
:10216800001010F8000000000020203F2020000090
:102178008080808080808000203F20003F20003FBA
:102188008080008080800000203F210000203F20C8
:102198000000808080800000001F202020201F0079
:1021A800808000808000000080FF912020110E00B8
:1021B8000000008080008000000E11202091FF8028
:1021C800808080008080800020203F212000010046
:1021D800000080808080800000332424242419009B
:1021E800008080E0808000000000001F2020100098
:1021F8008080000000808000001F202020103F20E9
:10220800808080008080800000030C300C03000078
:102218008080008080008080010E300C0738060125
:1022280000808080008080000020310E2E31200048
:1022380080808000008080800081867818060100F8
:1022480000808080808080000021302C2221300096
:102258000000000000FC020200000000013E4040B7
:1022680000000000FF00000000000000FF00000068
:102278000202FC000000000040403E010000000097
:102288000002010202040200000000000000000039
:102298000000000000000000000000000000000036
:1022A800000000000102030400000000000000001C
:1022B80001020304060708090102000002030405DD
:0C22C800060708090A0B0C0D0E0F101081
:0822D400B919000875010008AA
:0422DC004D010008A8
:1022E000020000000024F4000100000010000000C3
:0422F0008800002042
:0400000508000631B8
:00000001FF
